:020000041FFFDC
:10000000F8FF00201104FF1F131AFF1F131AFF1F10
:10001000131AFF1F131AFF1F131AFF1F131AFF1FB4
:10002000131AFF1F131AFF1F131AFF1F131AFF1FA4
:10003000131AFF1F131AFF1F131AFF1F131AFF1F94
:10004000797AFF1F131AFF1F131AFF1F131AFF1FBE
:10005000131AFF1F131AFF1F131AFF1F131AFF1F74
:10006000131AFF1F131AFF1F131AFF1F131AFF1F64
:10007000131AFF1F131AFF1F131AFF1F131AFF1F54
:10008000131AFF1F131AFF1F131AFF1F131AFF1F44
:10009000131AFF1F131AFF1F131AFF1F131AFF1F34
:1000A000131AFF1F131AFF1F131AFF1F131AFF1F24
:1000B000131AFF1F131AFF1F131AFF1F131AFF1F14
:1000C000131AFF1F131AFF1F131AFF1F131AFF1F04
:1000D000131AFF1F131AFF1F131AFF1F131AFF1FF4
:1000E000131AFF1F131AFF1F131AFF1F131AFF1FE4
:1000F000131AFF1F131AFF1F131AFF1F131AFF1FD4
:10010000131AFF1F131AFF1F131AFF1FA561FF1FEA
:10011000131AFF1F131AFF1F131AFF1F131AFF1FB3
:10012000131AFF1F131AFF1F131AFF1F131AFF1FA3
:10013000131AFF1F131AFF1F131AFF1F131AFF1F93
:10014000131AFF1F131AFF1F131AFF1F131AFF1F83
:100150008B7AFF1F131AFF1F131AFF1F131AFF1F9B
:10016000131AFF1F131AFF1F131AFF1F131AFF1F63
:10017000131AFF1F131AFF1F131AFF1F131AFF1F53
:10018000131AFF1F131AFF1F131AFF1F131AFF1F43
:10019000131AFF1F131AFF1F131AFF1F577AFF1F8F
:1001A000131AFF1F131AFF1F131AFF1F131AFF1F23
:1001B000131AFF1F131AFF1F131AFF1F131AFF1F13
:1001C000131AFF1F131AFF1F131AFF1F131AFF1F03
:1001D000131AFF1F131AFF1F131AFF1F131AFF1FF3
:10040000FFFFFFFFFFFFFFFFFFFFFFFFFEFFFFFFFD
:1004100062B607F0C5FEFEE72DE9F8430024200090
:10042000C0B2082808DA0022012114F14000C0B24D
:1004300001F016F9641CF2E700220121492001F0C5
:100440000FF9012201214A2001F00AF901220121BC
:100450004B2001F005F9002201214C2001F000F9A8
:10046000002201214D2001F0FBF84FF4A07149203A
:1004700001F0CCF94FF4A0714A2001F0C7F94FF414
:10048000A0714B2001F0C2F94FF4A0714C2001F093
:10049000BDF9DFF8000A00210160012101604FF47D
:1004A000FA7001F028FADFF8D85901202860DFF847
:1004B000D46900203060DFF8D07900203860DFF8A0
:1004C000CC89112088F80000DFF8C4990020C9F811
:1004D00000000120C9F8000001203860782001F0F8
:1004E0000AFA012028600020306000203860B12026
:1004F00088F800000020C9F800000120C9F80000B9
:100500000120386001202860012030600020386020
:10051000052088F800000020C9F800000120C9F873
:100520000000012038600120286001203060002098
:1005300038603A2088F800000020C9F80000012047
:10054000C9F80000012038600120286001203060D7
:10055000002038603A2088F800000020C9F8000028
:100560000120C9F800000120386001202860002027
:10057000306000203860B22088F800000020C9F800
:1005800000000120C9F80000012038600120286027
:100590000120306000203860052088F8000000202D
:1005A000C9F800000120C9F80000012038600120CE
:1005B000286001203060002038603A2088F8000070
:1005C0000020C9F800000120C9F8000001203860AF
:1005D0000120286001203060002038603A2088F82F
:1005E00000000020C9F800000120C9F80000012027
:1005F0003860012028600020306000203860B3207F
:1006000088F800000020C9F800000120C9F80000A7
:10061000012038600120286001203060002038600F
:10062000052088F800000020C9F800000120C9F862
:100630000000012038600120286001203060002087
:1006400038603A2088F800000020C9F80000012036
:10065000C9F80000012038600120286001203060C6
:10066000002038603A2088F800000020C9F8000017
:100670000120C9F800000120386001202860012015
:10068000306000203860052088F800000020C9F89C
:1006900000000120C9F80000012038600120286016
:1006A00001203060002038603A2088F800000020E7
:1006B000C9F800000120C9F80000012038600120BD
:1006C000286001203060002038603A2088F800005F
:1006D0000020C9F800000120C9F80000012038609E
:1006E000012028600020306000203860B42088F8A5
:1006F00000000020C9F800000120C9F80000012016
:100700003860012028600120306000203860072018
:1007100088F800000020C9F800000120C9F8000096
:1007200001203860012028600020306000203860FF
:10073000C02088F800000020C9F800000120C9F896
:100740000000012038600120286001203060002076
:100750003860282088F800000020C9F80000012037
:10076000C9F80000012038600120286001203060B5
:1007700000203860082088F800000020C9F8000038
:100780000120C9F800000120386001202860012004
:10079000306000203860842088F800000020C9F80C
:1007A00000000120C9F80000012038600120286005
:1007B0000020306000203860C12088F80000002050
:1007C000C9F800000120C9F80000012038600120AC
:1007D00028600120306000203860C02088F80000C8
:1007E0000020C9F800000120C9F80000012038608D
:1007F000012028600020306000203860C22088F886
:1008000000000020C9F800000120C9F80000012004
:1008100038600120286001203060002038600C2002
:1008200088F800000020C9F800000120C9F8000085
:1008300001203860012028600120306000203860ED
:10084000002088F800000020C9F800000120C9F845
:100850000000012038600120286000203060002066
:100860003860C32088F800000020C9F8000001208B
:10087000C9F80000012038600120286001203060A4
:10088000002038608C2088F800000020C9F80000A3
:100890000120C9F8000001203860012028600120F3
:1008A0003060002038602A2088F800000020C9F855
:1008B00000000120C9F800000120386001202860F4
:1008C0000020306000203860C42088F8000000203C
:1008D000C9F800000120C9F800000120386001209B
:1008E000286001203060002038608A2088F80000ED
:1008F0000020C9F800000120C9F80000012038607C
:10090000012028600120306000203860EE2088F847
:1009100000000020C9F800000120C9F800000120F3
:100920003860012028600020306000203860C52039
:1009300088F800000020C9F800000120C9F8000074
:1009400001203860012028600120306000203860DC
:100950000C2088F800000020C9F800000120C9F828
:100960000000012038600120286000203060002055
:100970003860E02088F800000020C9F8000001205D
:10098000C9F8000001203860012028600120306093
:1009900000203860052088F800000020C9F8000019
:1009A0000120C9F8000001203860012028600120E2
:1009B0003060002038601A2088F800000020C9F854
:1009C00000000120C9F800000120386001202860E3
:1009D00001203060002038600C2088F800000020E2
:1009E000C9F800000120C9F800000120386001208A
:1009F000286001203060002038600E2088F8000058
:100A00000020C9F800000120C9F80000012038606A
:100A10000120286001203060002038603A2088F8EA
:100A200000000020C9F800000120C9F800000120E2
:100A300038600120286001203060002038603420B8
:100A400088F800000020C9F800000120C9F8000063
:100A500001203860012028600120306000203860CB
:100A60002D2088F800000020C9F800000120C9F8F6
:100A70000000012038600120286001203060002043
:100A800038602F2088F800000020C9F800000120FD
:100A9000C9F8000001203860012028600120306082
:100AA000002038602D2088F800000020C9F80000E0
:100AB0000120C9F8000001203860012028600120D1
:100AC0003060002038602A2088F800000020C9F833
:100AD00000000120C9F800000120386001202860D2
:100AE00001203060002038602F2088F800000020AE
:100AF000C9F800000120C9F8000001203860012079
:100B0000286001203060002038603C2088F8000018
:100B10000020C9F800000120C9F800000120386059
:100B2000012028600120306000203860002088F813
:100B300000000020C9F800000120C9F800000120D1
:100B400038600120286001203060002038600120DA
:100B500088F800000020C9F800000120C9F8000052
:100B600001203860012028600120306000203860BA
:100B7000022088F800000020C9F800000120C9F810
:100B80000000012038600120286001203060002032
:100B90003860102088F800000020C9F8000001200B
:100BA000C9F8000001203860012028600020306072
:100BB00000203860E12088F800000020C9F800001B
:100BC0000120C9F8000001203860012028600120C0
:100BD000306000203860042088F800000020C9F848
:100BE00000000120C9F800000120386001202860C1
:100BF00001203060002038601B2088F800000020B1
:100C0000C9F800000120C9F8000001203860012067
:100C1000286001203060002038600D2088F8000036
:100C20000020C9F800000120C9F800000120386048
:100C30000120286001203060002038600E2088F8F4
:100C400000000020C9F800000120C9F800000120C0
:100C500038600120286001203060002038602D209D
:100C600088F800000020C9F800000120C9F8000041
:100C700001203860012028600120306000203860A9
:100C8000292088F800000020C9F800000120C9F8D8
:100C90000000012038600120286001203060002021
:100CA0003860242088F800000020C9F800000120E6
:100CB000C9F8000001203860012028600120306060
:100CC00000203860292088F800000020C9F80000C2
:100CD0000120C9F8000001203860012028600120AF
:100CE000306000203860282088F800000020C9F813
:100CF00000000120C9F800000120386001202860B0
:100D00000120306000203860262088F80000002094
:100D1000C9F800000120C9F8000001203860012056
:100D200028600120306000203860312088F8000001
:100D30000020C9F800000120C9F800000120386037
:100D40000120286001203060002038603B2088F8B6
:100D500000000020C9F800000120C9F800000120AF
:100D600038600120286001203060002038600020B9
:100D700088F800000020C9F800000120C9F8000030
:100D80000120386001202860012030600020386098
:100D9000002088F800000020C9F800000120C9F8F0
:100DA0000000012038600120286001203060002010
:100DB0003860032088F800000020C9F800000120F6
:100DC000C9F800000120386001202860012030604F
:100DD00000203860122088F800000020C9F80000C8
:100DE0000120C9F80000012038600120286000209F
:100DF0003060002038603A2088F800000020C9F8F0
:100E000000000120C9F8000001203860012028609E
:100E10000120306000203860052088F800000020A4
:100E2000C9F800000120C9F8000001203860012045
:100E300028600020306000203860292088F80000F9
:100E40000020C9F800000120C9F800000120386026
:100E50000120286000203060002038602C2088F8B5
:100E600000000020C9F800000120C9F8000001209E
:100E70003860DFF8C807007800F00EF8BDE8F183AD
:100E80002810FE433010FE432C10FE4380F00F402C
:100E90002410FE433410FE4370B504002000C0B29D
:100EA000042804DBC821DFF8980700F047FDDFF8CD
:100EB0008C0704702000C0B2002808D0022800F07F
:100EC0007C81C0F0BF80032800F03082E2E2DFF8CE
:100ED000740701210160DFF8701700220A60DFF853
:100EE0006C2700231360DFF8683736251D70DFF8A4
:100EF000645700262E6001262E600126166001260A
:100F0000066001260E6000261660C8261E700026A8
:100F10002E6001262E60012616600126066000263E
:100F20000E60002616602A261E7000262E600126FE
:100F30002E60012616600126066001260E6000263E
:100F4000166000261E7000262E6001262E600126E7
:100F500016600126066001260E6000261660022635
:100F60001E7000262E6001262E60012616600126C6
:100F7000066001260E600026166000261E70002600
:100F80002E6001262E6001261660012606600126CD
:100F90000E600026166081261E7000262E60012637
:100FA0002E60012616600126066000260E600026CF
:100FB00016602B261E7000262E6001262E6001264C
:100FC00016600126066001260E60002616600026C7
:100FD0001E7000262E6001262E6001261660012656
:100FE000066001260E600026166003261E7000268D
:100FF0002E6001262E60012616600126066001265D
:101000000E600026166000261E7000262E60012647
:101010002E6001261660012606600120086000206F
:1010200010608220187000202860012028600120B4
:1010300010608020DFF8201608808020DFF81C1662
:10104000088027E2DFF8FC0501210160DFF8F815D0
:1010500000220A60DFF8F42500231360DFF8F03582
:1010600036251D70DFF8EC5500262E6001262E6017
:10107000012616600126066001260E600026166015
:10108000A8261E7000262E6001262E6001261660FE
:101090000126066000260E60002616602A261E70B5
:1010A00000262E6001262E600126166001260660AD
:1010B00001260E600026166000261E7000262E6097
:1010C00001262E60012616600126066001260E60AC
:1010D0000026166003261E7000262E6001262E6054
:1010E000012616600126066001260E6000261660A5
:1010F00000261E7000262E6001262E600126166036
:101100000126066001260E600026166082261E70EB
:1011100000262E6001262E6001261660012606603C
:1011200000260E60002616602B261E7000262E60FC
:1011300001262E60012616600126066001260E603B
:101140000026166000261E7000262E6001262E60E6
:10115000012616600126066001260E600026166034
:1011600002261E7000262E6001262E6001261660C3
:101170000126066001260E600026166000261E70FD
:1011800000262E6001262E600126166001260660CC
:101190000120086000201060812018700020286065
:1011A00001202860012010608020DFF8AC14088046
:1011B0008020DFF8A81408806CE1DFF888040121A2
:1011C0000160DFF8841400220A60DFF88024002325
:1011D0001360DFF87C3436251D70DFF87854002664
:1011E0002E6001262E60012616600126066001266B
:1011F0000E600026166008261E7000262E6001264E
:101200002E60012616600126066000260E6000266C
:1012100016602A261E7000262E6001262E600126EA
:1012200016600126066001260E6000261660002664
:101230001E7000262E6001262E60012616600126F3
:10124000066001260E600026166002261E7000262B
:101250002E6001262E6001261660012606600126FA
:101260000E600026166000261E7000262E600126E5
:101270002E60012616600126066001260E600026FB
:10128000166081261E7000262E6001262E60012623
:1012900016600126066000260E60002616602B26CA
:1012A0001E7000262E6001262E6001261660012683
:1012B000066001260E600026166000261E700026BD
:1012C0002E6001262E60012616600126066001268A
:1012D0000E600026166003261E7000262E60012672
:1012E0002E60012616600126066001260E6000268B
:1012F000166000261E7000262E6001262E60012634
:10130000166001260660012008600020106082201F
:1013100018700020286001202860012010608020C3
:10132000CD4908808020CD490880B3E0C54801211F
:101330000160C54900220A60C44A00231360C44BFF
:1013400036251D70C34D00262E6001262E60012615
:1013500016600126066001260E60002616606826CB
:101360001E7000262E6001262E60012616600126C2
:10137000066000260E60002616602A261E700026D3
:101380002E6001262E6001261660012606600126C9
:101390000E600026166000261E7000262E600126B4
:1013A0002E60012616600126066001260E600026CA
:1013B000166003261E7000262E6001262E60012670
:1013C00016600126066001260E60002616600026C3
:1013D0001E7000262E6001262E6001261660012652
:1013E000066001260E600026166082261E7000260A
:1013F0002E6001262E60012616600126066000265A
:101400000E60002616602B261E7000262E60012618
:101410002E60012616600126066001260E60002659
:10142000166000261E7000262E6001262E60012602
:1014300016600126066001260E6000261660022650
:101440001E7000262E6001262E60012616600126E1
:10145000066001260E600026166000261E7000261B
:101460002E6001262E6001261660012606600120EE
:101470000860002010608120187000202860012082
:101480002860012010608020734908808020734903
:101490000880FFE770BD73B468480078C0070AD5BC
:1014A000BDF80000C01CADF80000BDF80200801CB3
:1014B000ADF8020009E0BDF80000801CADF80000A6
:1014C000BDF80200C01CADF802005E4901200860B2
:1014D0005D4A002010605D4B002018605C4C2A20A3
:1014E00020705C4D002028600120286001201860D9
:1014F000012008600120106000201860BDF8000085
:1015000080B2000A2070002028600120286001209D
:101510001860012008600120106000201860BDF8EC
:101520000000207000202860012028600120186041
:10153000012008600120106000201860BDF8000044
:10154000BDF8046016FA80F0401E001220700020E2
:101550002860012028600120186001200860012017
:10156000106000201860BDF80060BDF80400861906
:10157000701E207000202860012028600120186063
:101580000120086000201060002018602B202070CF
:1015900000202860012028600120186001200860D8
:1015A0000120106000201860BDF8020080B2000A1F
:1015B0002070002028600120286001201860012090
:1015C00008600120106000201860BDF80200207043
:1015D0000020286001202860012018600120086098
:1015E0000120106000201860BDF80200BDF8066000
:1015F00016FA80F0401E00122070002028600120A2
:10160000286001201860012008600120106000207F
:101610001860BDF80210BDF806004118481E207081
:1016200000202860012028600120186073BC7047EA
:101630000948008870470948008870470E58002004
:101640004C83FF1F2810FE433010FE432C10FE4336
:1016500080F00F402410FE436091FF1F6291FF1F36
:10166000F8B504000D0016004FF480712000C0B2E0
:1016700000F0CCF8280040B2002812D161482100C7
:10168000C9B2491150F821102200D2B2521150F8BB
:1016900022004269012314F01F0083409A434A61EB
:1016A00038E00121574A2000C0B2401152F8200012
:1016B0002300DBB25B1152F823305B6914F01F0783
:1016C00011FA07F73B4343613000C0B2002811D143
:1016D0002000C0B2401152F82000036814F01F002F
:1016E000814033EA01012000C0B2401152F82000CD
:1016F00001600FE02000C0B2401152F820000368E2
:1017000014F01F00814019432000C0B2401152F86C
:1017100020000160F1BD70B504000D00394E2000BD
:10172000C0B2401156F82000406914F01F01C840B3
:10173000C00703D46321344800F000F92800C0B288
:10174000002811D12000C0B2401156F820000168D5
:10175000012214F01F00824091432000C0B24011CA
:1017600056F82000016010E02000C0B2401156F889
:1017700020000168012214F01F0082401143200064
:10178000C0B2401156F82000016070BD38B50400A9
:101790001C4D2000C0B2401155F82000406914F0E3
:1017A0001F01C840C00703D47B21174800F0C6F8CA
:1017B0002000C0B2401155F82010012214F01F0083
:1017C0008240CA6031BD38B504000E4D2000C0B261
:1017D000401155F82000406914F01F01C840C007AF
:1017E00003D58C21084800F0A9F82000C0B24011B0
:1017F00055F82000006914F01F04E04010F00100CB
:1018000032BD0000E88FFF1F1484FF1F30B42B4B44
:101810001C684FF400750200D2B2520995402C4367
:101820001C60274B0200D2B2521153F8224001250E
:1018300010F01F029540C4F8A0500200D2B252111D
:1018400053F822200300DBB213F01F0342F82310E9
:1018500030BC704730B4194B1C684FF4007502005F
:10186000D2B2520995402C431C60154B0200D2B2F3
:10187000521153F82240012510F01F029540C4F880
:10188000A05031F4E0610200D2B2521153F822208C
:101890000400E4B214F01F0452F8242012F4E062B1
:1018A00011430200D2B2521153F822200300DBB2DE
:1018B00013F01F0342F8231030BC704738800440F7
:1018C0004490FF1F10B50400002C13D0B4F1807FAA
:1018D00003D329210E4800F031F80E4800210160A1
:1018E0000D490C6000210D4A11600521016001685D
:1018F000C903FCD510BD10B504002000441E00280B
:1019000004D007480068FFF7DDFFF6E710BD0000D0
:101910007484FF1F10E000E014E000E018E000E035
:10192000584D0020BFF34F8F46490A6812F4E06219
:10193000454802430A60BFF34F8FFEE738B5040005
:101940000D00002000F08EF82A0021003F4800F032
:10195000E9F8002000F0C7F84FF47A70FFF7CBFFEA
:10196000F2E738B504000D00210049B2012000F073
:1019700004FA200032BD10B50024042000F044FA1F
:10198000042000F07BFA002842D1002000F06AF821
:10199000042000F073FA012801D101200400002086
:1019A00000F0A1F82A4800F0BDF84FF4FA70FFF7F4
:1019B000A2FF2000C0B20128EAD1042000F05EFAA4
:1019C0000028E5D1042000F059FA002806D10020B3
:1019D00000F089F86420FFF78EFFF3E7042000F0A1
:1019E0004DFA012806D1002000F07DF83220FFF7E3
:1019F00082FFF3E7174800F095F807F0C9FB642071
:101A0000FFF779FF002007F0D8FBFFF78BFFBFE758
:101A100010BD10B510480468012000F023F8012023
:101A200000F061F80D492200D2B20F2042430A446F
:101A30002100C9B20A4800F075F84FF47A70FFF738
:101A40005AFFECE70CED00E00400FA05A087FF1F49
:101A50004888FF1FD487FF1F04ED00E0D488FF1FD4
:101A60003C87FF1F10B50400200040B2042808DAAC
:101A7000012201212A4823005BB2C05CFFF7F0FD80
:101A80000FE0042004002000441E40B2002808D0CB
:101A900001220121224823005BB2C05CFFF7E0FD78
:101AA000F1E710BD38B505000C00280040B204284D
:101AB00008DA2100C9B21A482A0052B2805CFFF746
:101AC0002AFE0FE0042005002800451E40B2002831
:101AD00008D02100C9B212482A0052B2805CFFF738
:101AE0001AFEF1E731BD10B50400200040B2042811
:101AF00006DA0B48210049B2405CFFF747FE0DE0D3
:101B0000042004002000441E40B2002806D00448EF
:101B1000210049B2405CFFF739FEF3E710BD000039
:101B2000C890FF1F0EB4C0B5024603A80021019063
:101B3000009101AB0121044878440C3000F0B6F963
:101B400006BC5DF810FB00BFDF6C0000012210F046
:101B50001F018A40DFF8941203005BB25B0941F871
:101B6000232070472DE9F84304000D00200040B207
:101B7000002808D0022828D016D3042847D035D30F
:101B8000052855D065E0DFF86802016851F48061EE
:101B900001604FF440716620FFF738FE4FF440714A
:101BA0006720FFF733FE54E0DFF84402016851F488
:101BB000006101604FF440714320FFF727FE4FF4AE
:101BC00040718020FFF722FE43E0DFF82402016825
:101BD00051F4805101604FF440716320FFF716FE0D
:101BE0004FF440716220FFF711FE32E0DFF800028F
:101BF000016851F4005101604FF440715020FFF72B
:101C000005FE4FF440715120FFF700FE21E0DFF8A0
:101C1000E401016851F4806101604FF440714E208D
:101C2000FFF7F4FD4FF440714F20FFF7EFFD10E098
:101C3000DFF8C001016851F4006101604FF44071A8
:101C40008920FFF7E3FD4FF440718820FFF7DEFDA8
:101C5000FFE7DFF8A461200040B256F82000C0780A
:101C600010F0F300210049B256F82110C87020008E
:101C700040B256F820008078210049B256F8211071
:101C80008870200040B2002803D0200040B2012814
:101C900006D1DFF8680107684FF47A70474305E022
:101CA000DFF85C0107684FF47A7047432801B7FBFF
:101CB000F0F8404680B2B0F5005F02DB41F6FF70FD
:101CC0008046B7FBF5F9404680B2B9EB00194846AB
:101CD00080B2202803DBDC214A48FFF72FFE2000DA
:101CE00040B256F82000007810F0E000C8F304215C
:101CF0000143220052B256F822201170210049B24D
:101D000056F8211081F80180210049B256F82110BF
:101D1000897A11F0E00119F01F020A4323005BB237
:101D200056F823309A72220052B256F82220127CC2
:101D300052F0880223005BB256F823301A74220056
:101D400052B256F82220D27852F00C0223005BB235
:101D500056F82330DA70BDE8F183274A03005BB2FE
:101D600052F823301B799B06F7D503005BB252F87B
:101D7000232092F907200A7070471F4A03005BB2C4
:101D800052F823301B791B06F7D503005BB252F8DB
:101D90002320D171704770B504000D00160030008B
:101DA000461E002809D095F90000010049B2200024
:101DB00040B2FFF7E2FF6D1CF1E770BD10B5040003
:101DC0000D48210049B250F82110C97851F0200186
:101DD000220052B250F82200C170200040B24000F0
:101DE0002D3040B2FFF7B2FE10BD000000E100E070
:101DF00034800440288004406490FF1F584D002028
:101E0000604D0020D484FF1F38B50400200040B28C
:101E100008280EDA244D00220021200040B2285C60
:101E2000FFF71EFC0321200040B2285CFFF712FDE3
:101E300015E0082004002000441E40B200280ED007
:101E4000194D00220021200040B2285CFFF708FC59
:101E50000321200040B2285CFFF7FCFCEBE731BD1A
:101E600010B504001048210049B2405CFFF7ABFCFC
:101E7000002801D1002000E0012010BD10B50400B1
:101E8000200040B2FFF7ECFF00280AD10A20FFF73C
:101E900032FD200040B2FFF7E3FF002801D100200F
:101EA00000E0012010BD0000C090FF1F2DE9F043AD
:101EB0009FB00FF6A836269CDFF804898DF83B40CA
:101EC000029100240B944FF0FF37044691461D46C3
:101ED0000AE019F8011B0298A0470028029000F0C0
:101EE000A1800B98401C0B9099F8000050B1252858
:101EF000EFD10021002205910692079108920991E5
:101F00000A9203E00B98A0E041F0010119F8010FDB
:101F10002028F9D023280CD02B2804D02D2805D038
:101F2000302809D080E041F00201EFE741F00401E0
:101F3000ECE741F00801E9E741F01001E6E70D9216
:101F40000AE00D98404505DA00EB800002EB400204
:101F5000303A0D9209F1010999F80020A2F1300000
:101F60000A28EED399F800002E2818BF0C9726D126
:101F700019F8010F2A2808D12868286009F10109F9
:101F800050F8042B28600C9219E02D280CBF09F1A1
:101F90000109002000220C920BE040B90C9A424546
:101FA00005DA02EB820203EB4203303B0C9309F1AA
:101FB000010999F80030A3F130020A2AEDD3ADF8F7
:101FC0003810304699F8001000F098FD08B119F863
:101FD000010B8DF83A009DF83A00682805D199F870
:101FE000000068280CD1622106E06C2804BF99F833
:101FF00000006C2804D171218DF83A1009F1010913
:1020000010A804902A4619F8013B6946204600F0C2
:102010005CF838B910AA6946204600F086F9002815
:102020007FF562AF384610E02A2888D12A682A60F6
:1020300052F8040B2A6000280D9003D540420D9001
:1020400041F0040109F101098CE71FB0BDE8F083FC
:10205000622820D0682811D06A2803D06C2827D0A5
:10206000712825D10868C01D20F007000860D0E95C
:10207000002308300860194610467047002A0A6895
:102080000A60106803D0121D0A6000B217E0121D2A
:102090000A6080B217E0002A0A680A60106803D05C
:1020A000121D0A6040B20AE0121D0A60C0B20AE0C6
:1020B000002A0A680A60106803D0121D0A60C1175E
:1020C0007047121D0A600021704770B51C460D460E
:1020D000B4F125002E69114600F015812038022840
:1020E00063D9133840D00B3816D0401E1ED0401E86
:1020F00002285AD9001F19D0401F00F08180401ECD
:1021000032D0401E00F0CB80C01E00F0DA80801E6E
:102110002AD0C01E28D0FCE06869421C6A610A68A7
:102120000A6052F8043B0A603354FCE095F83A0028
:102130000122FFF78DFFC5E90001002904D5686978
:10214000411C69612D220DE0288F810704D5686943
:10215000411C69612B2205E0C00721D56869411C3B
:102160006961202232541BE095F83A000022FFF703
:102170006FFFC5E9000195F83800010710D5D5E9D2
:102180000023002B08BF002A0AD044F02000782842
:1021900006D1686930213154401C421C6A613454B4
:1021A000214668693044E86087E00868C01D20F077
:1021B00007000860D0E9002308300860C5E9002363
:1021C000D5E90001C80F04D06869411C69612D225E
:1021D0000DE0288F810704D56869411C69612B22B5
:1021E00005E0C00704D56869411C696120223254AA
:1021F00068693044E8602146284600F0C4F992E05E
:1022000005F13A02507820B14FF0FF340FF6540038
:1022100062E01078622808D0682824D06A2812D09A
:102220006C282ED071280ED02BE00A680A6052F874
:10223000040B0A6020B94FF0FF340FF640004BE06A
:10224000E96A01706FE00A680A6052F8040B0A60DC
:1022500020B94FF0FF340FF624003DE0EA6AD317AF
:10226000C0E900235FE00A680A6052F8040B0A60C4
:1022700020B94FF0FF340FF604002DE0E96A018029
:1022800051E00A680A6052F8040B0A6020B94FF066
:10229000FF340FF2E8701FE0E96A016043E00A686A
:1022A0000A6052F8040B0A60002120F0000221F0BD
:1022B000FF33C5E90023EE607821284600F0BBF823
:1022C00031E00868086050F8044B0860EC603CB9E5
:1022D0004FF0FF340FF2BC7000F01CFC201A70BDF0
:1022E0002E6B002E04D5204600F034FC044608E096
:1022F00032460021204600F049FC002814BF041B90
:102300003446AC610FE06869411C69612522325492
:1023100009E06969481C686125227254210002D0D5
:10232000431C6B613454002070BD2DE9FC410F4605
:10233000064690467A6B7869396ABC6A121AB8699F
:10234000521A796A121AF869521A121A97F8380052
:10235000141B41070FD42020002C8DF800000ADD4B
:10236000254601236A463946304600F05FFB0028C7
:102370005DD16D1EF5D17B6942463946304600F08D
:1023800055FB002853D130208DF800003D6A002D08
:1023900009DD01236A463946304600F047FB002834
:1023A00045D16D1EF5D1BB69FA683946304600F05B
:1023B0003DFB00283BD130208DF800007D6A002DC8
:1023C00008DD01236A463946304600F02FFB70BB1A
:1023D0006D1EF6D1F868B969FB6942183946304676
:1023E00000F024FB18BB30208DF80000BD6A002DE2
:1023F00008DD01236A463946304600F017FBB0B9C4
:102400006D1EF6D197F8380041070DD52020002C1D
:102410008DF8000008DD01236A463946304600F099
:1024200005FB20B9641EF6D10020BDE8F6814FF00F
:10243000FF30BDE8F6812DE9FC4307466F293E6970
:1024400008BF082405D041F02000782814BF0A24D2
:1024500010243C25D7E90023642918BF6929904638
:10246000994605D1002B03D5D8F1000869EB49093D
:10247000B9F1000F08BFB8F1000F1FD1386BE8B9F0
:10248000082C4CD197F83800010748D530203B255F
:1024900086F83B0043E000280ED597F8380000F09E
:1024A0001400102808D17B6B7969386A5B1A1B1AF3
:1024B0009A1A002AC8BF3A62BDE8F3838DF800106B
:1024C000404649462246E31700F08CFB3032D0B23A
:1024D0006D1E3A28019504DB9DF80000A0F1510122
:1024E0008A187255404649462246E31700F07AFBA7
:1024F00080465FEA010908BFB8F1000F03D0F86811
:1025000071198842DCD3082C09D197F838000107EB
:1025100005D5705D302802D06D1E30207055C5F194
:102520003C02BA617119F960386B8242B3DA821ADF
:102530003A624FF6EF70398F01403987BDE8F38377
:102540002DE9D04306460F4614464FF00008DFF849
:10255000749212E0E00707D542464B4630463946B2
:1025600000F058FC06460F464046494642464B4658
:1025700000F050FC641080468946002CEAD13046B9
:102580003946BDE8D0832DE9F047064689468EB02E
:10259000D6E90001CDE9020104AC306B002802D578
:1025A0000620306305E001BF49F0200067280121C3
:1025B0003163D6E9002358004015401C0DD11903A2
:1025C0000BD0A9F1610103201A29B06102D20FF2E8
:1025D000E04110E00FF2DC410DE059004915491CC3
:1025E0000ED118030CD1A9F1610103201A29B061A1
:1025F00016D30FF2C841F068032200F0DDFCDBE0E7
:1026000023F00047B7F5801F1046194622F0000559
:102610000DD20022002F08BF002D019203D116E039
:102620000FF29441E7E701AA00F01AFD08E06648BE
:10263000664900EB17500190654803401046194366
:10264000019B644D47F29752534393FBF5F2C6E961
:10265000000120F0000331F0004104BF002B0023F3
:1026600000F0A280DDE90240019220F00045D2F1A5
:10267000070204DD20462946FFF762FF0AE05242C6
:1026800000205549FFF75CFF02460B4620462946CD
:1026900000F01EFD044649F0200ABAF1660F306BC7
:1026A00006BF019D0A3506252D18142DC8BF142517
:1026B000302088468DF810000DF11107002D33DD14
:1026C0002046414600F028FE01460A4607F108036D
:1026D00004200A27B2FBF7F707EB870EA2EB4E02A6
:1026E000303203F8012C0A22B7FBF2F202EB820E21
:1026F000A7EB4E073037401E03F8027DE9D1083DB5
:10270000002D03F10807D9DD084600F019FE024646
:102710000B462046414600F021FE00222F4B00F0E0
:1027200079FB04468846CBE70DF111003F1A0DF105
:10273000110404E00198401E7F1E0190641C207863
:102740003028F7D0BAF1660F02D10198401C04E09E
:10275000BAF1650F0CBF01200020336BC3189F42F4
:10276000B8BF7B1E002B1ED4BB4204DAE05C3528C8
:10277000A8BF392000DA30201946621E02EB01089A
:1027800000E05B1E18F80179491E8742F9D039280C
:1027900002D1605C401C6054002904D50198401CA3
:1027A00014465B1C0190019800B200901BB22246B7
:1027B0004946304600F014F80EB0BDE8F08700003E
:1027C000CBCCCC0C0000244002FCFFFF0000E03F1B
:1027D000FFFF0F80A08601000000F03F84D79741E3
:1027E0002DE9F84783B005468A469146984600F0A1
:1027F00027FEB8F1000F406A2F6B067803DC4FF01C
:1028000001080FF2BC294AF02000BDF930406628CB
:1028100008BF641C13D0672840F08F8014F1040FA8
:102820007ADBBC4278DA95F83800641C010702D4E0
:10283000B845B8BF474620B23F1A48BF00270FFA35
:1028400084FAE868A969BAF1000F23DC4A1C302336
:102850004354002F03DC95F83800010702D5E868DF
:102860008654521C17EB0A0FB8BF7C4224B2E719FA
:1028700060424745B8BFB846AA6168620FFA88F45B
:10288000EC61E868AB6922464946184400F094FBC5
:102890003F1B18E022B29045084416DA42464946EA
:1028A00000F08AFBA8694044A861AAEB0801002F48
:1028B000696203DC95F838100A0704D5E9680E54FC
:1028C000E869401CE861AF6299E0494600F074FB9A
:1028D000A869002F5044A8EB040803DC95F83810D1
:1028E0000A0702D5E9680E54401CA8610FFA88F067
:1028F0008742EB68A869B8BFB8460FFA88F209EBBF
:102900000A01184400F058FBA9690FFA88F0014445
:10291000A961381A686272E0B84504DA95F838108F
:102920000A0758BF47467F1E48BF0027BAF1670F06
:102930000CBF4FF0650A4FF0450AA969EB68481CC7
:10294000A861002F19F8012B5A5403DC95F83810B0
:102950000A0719D5E968431CAB610E54002F13DD3B
:10296000A8F1010630B28742D5F80CC0B8BF3E4688
:1029700032B249460CEB030000F01EFBA86936B2E8
:102980003018BF1BA8616F62E868A9690844002C71
:1029900080F800A003D42B224270811C03E02D217B
:1029A00041706442811C00206A460AE023460A24E2
:1029B00093FBF4F404EB8406A3EB460302F8013B1B
:1029C000401C24B2002CF1DC012806DC4AF0200275
:1029D000652A04BF302201F8012B48B9302001F8E4
:1029E000010B07E0401E1DF80030303301F8013BB9
:1029F0000028F7DCEA68A8691044091AE96195F82B
:102A0000380000F0140010280DD16A69A969686ABD
:102A10008A18E9698218A86A8A188218686B824243
:102A2000BCBF821A2A6204B0BDE8F087F8B505463B
:102A30000E4617461C46002074B117F8011BB068FB
:102A4000A847B06030B1F06A401CF0620020641EFC
:102A5000F3D1F2BD4FF0FF30F2BD0000686A6C7434
:102A60007A4C00007072696E74665F733A20256E4E
:102A700020646973616C6C6F776564007072696E55
:102A800074663A2062616420256E20617267756DFC
:102A9000656E74007072696E74665F733A2062616D
:102AA0006420257320617267756D656E7400000087
:102AB0006E616E004E414E00696E6600494E4600E2
:102AC000300030B4002513E050F8042BD30744BF86
:102AD000A9F101039A18091F042942F8045BFAD2EC
:102AE00013468C0744BF15809B1CC90748BF1D7047
:102AF00050F8041B0029E7D130BC7047C9B20278F6
:102B00008A421AB11CBF10F8012FF9E718BF002044
:102B10007047000080B500B906A005490B681BB1DD
:102B200022220021984701E000F08EFC222002BD05
:102B30007C570020636F6E73747261696E742068D5
:102B4000616E646C65723A20626164206D657373B6
:102B50006167650000F10103810704D010F8011BD3
:102B6000820781B1FAD10268A2F10131914311F0DB
:102B7000803104BF50F8042FF6E709BAB1FA81F1A9
:102B800000EBD100401CC01A70470000C9B2830797
:102B900006D0521E22D310F8013B9942F7D11FE014
:102BA000083A13D302F1040241EA012141EA01414A
:102BB00050F8043B121F21BF4B40A3F1013C2CEA0B
:102BC000030C1CF0803FF3D0C9B2001F083210F88C
:102BD000013B521E28BF91EA030FF8D818BF01200D
:102BE000401E7047BBBBE1B1B2F5803F80F07E80F4
:102BF000022A1ED98C46B1FBF2F102FB11C31B0461
:102C000043EA1043B3FBF2FC02FB1C3380B240EA00
:102C10000343B3FBF2F002FB103240EA0C40002306
:102C20007047022A05D98446B0FBF2F002FB10C2BD
:102C300070474AB105D100F0010249085FEA30004F
:102C4000704700220023704700F002BC0B00020016
:102C5000002100207047904271EB030CF6D3B3F5CE
:102C6000803F2FD2F0B5B3FA83F7B1FA81F4A7F120
:102C70000F0E3D1B5340CEF1200602FA0EF2F34137
:102C80005340B5F10F0746D80F3C2C444140C4F1E6
:102C90002006A040F1414140B1FBF3F603FB1611C1
:102CA000A2FB0645001BA94102D2761E801859419D
:102CB00080EA010221FA0EF362FA0EF200215A4074
:102CC0003046F0BD30B4B1FBF3FC03FB1C11A2FB9A
:102CD0000C45001BA94103D2ACF1010C80185941ED
:102CE00030BC02460B46604600217047B2F1807F3F
:102CF00065D3F0B5B2FA82F7B1FA81F4C7F10F06E5
:102D00003D1B22FA06F307F1110EF24120355A401D
:102D1000B5F10F07B8D94140C4F12006A040F141F8
:102D20004140B1FBF3FC03FB1C11A2FB0C45001B53
:102D3000A94103D2BCF1010C801859410F2F12D3C5
:102D40000F3FC90341EA5041B1FBF3F603FB1611F3
:102D5000A2FB0645D4EBC030A94102D2761E8018F2
:102D6000594146EACC3C07B34140C7F12006B84080
:102D7000F1414140B1FBF3F603FB1611A2FB0645FE
:102D8000001BA94102D2761E8018594180EA010237
:102D900021FA0EF3C7F1200462FA0EF20CFA07F0E2
:102DA0005A402CFA04F13043F0BD80EA010221FAC6
:102DB0000EF3002162FA0EF260465A40F0BD8C46D6
:102DC000B1FBF2F102FB11C31B0243EA1063B3FB38
:102DD000F2FC02FB1C331B024CEA002043EA1063A6
:102DE000B3FBF2FC02FB1C331B024CEA002043EA5B
:102DF0001063B3FBF2FC02FB1C331B024CEA002005
:102E000043EA1063B3FBF2FC02FB1C324CEA0020E5
:102E100000237047B0B581EA030C0CF0004C40F27F
:102E2000FF7515EA11541DBF15EA1357AC42AF42A6
:102E300039E0E41923EA455343F48013C90241F011
:102E4000004141EA505EC7021100A7FB02020028C0
:102E50004FF00000EEFB01204FF00001E3FB0721E3
:102E600018BF42F00102401800214941E3FB0E0166
:102E7000A4F580640F0302D252004041494154F14D
:102E800001046CDD470872F1004250F1000051EB83
:102E90000451A1F580115CBF41EA0C01B0BD4CEAC0
:102EA00005510020B0BD05EA1357AC4214BFAF4234
:102EB00041E050EA410E1CBF52EA430E02E0614677
:102EC0000020B0BD24423C441BD15FEA070EF6D07F
:102ED000090302BF01460020AEF1140EB1FA81F7DA
:102EE000AEEB070401FA07FE0C37C7F1200100FA28
:102EF00007F7C8404EEA000E23EA455343F4801317
:102F0000A2E733F00043B3FA83F704BFB2FA82FEBC
:102F100077440B3FE41BB7F1200E2FBF02FA0EF3EC
:102F2000BB40C7F1200E22FA0EFE38BF43EA0E0363
:102F3000BA40641C82E750EA410E14BF52EA430EC5
:102F40006FF000014FF4001717EB430F8ABF1946CB
:102F500017EB410FB5E74CEA05510020B0BDD4F1A5
:102F60000104B4F120070FDAC4F12007520828BF8A
:102F700042F0010210FA07F501FA07F7E1BF2A4310
:102F8000E0403843E1400FE0352C98DCC7F12004E5
:102F900052EA400220FA07F218BF42F0010231FA69
:102FA00007F0A1400A43002172F1004250F10000F5
:102FB00051EB0C01B0BD000062B38B0708D0521E6C
:102FC00011F8013B00F8013B00F024808B07F6D19B
:102FD000830740F0208000BF103A07D330B4B1E837
:102FE0003810103AA0E83810F9D230BC530724BF8B
:102FF000B1E80810A0E8081044BF51F8043B40F8BD
:10300000043BD20724BF31F8022B20F8022B44BF27
:103010000B7803707047121F17D35B0009D151F86A
:10302000043B20F8023B1B0C121F20F8023BF6D297
:103030000BE051F8043B00F8013B1B0A20F8023B6F
:103040001B0C121F00F8013BF3D238BF121D521E99
:1030500024BF11F8013B00F8013BF8D8704700008D
:1030600010B5144600F002F8226010BDC1F30A53F7
:1030700043B14A0012F5001F28D2A3F2FE32A1EBA1
:103080000251704750EA410C20D001F0004C31EA67
:103090000C01B1FA81F204BFB0FA80F3D2180B3AF6
:1030A000B2F120032CBF00FA03F1914041EA0C0178
:1030B0003EBFC2F1200C20FA0CF31943904052425B
:1030C00040F2FD33D21A01EB0351704700227047E2
:1030D000F0B540F2FF7581EA030C0CF0004C15EAE4
:1030E00011541DBF15EA1357AC42AF42E5E0BC4195
:1030F000C1F31301C3F31303801A994143F48013FE
:1031000004D2641E4000494180185941C90241EA75
:103110005051B1FBF3F603FB1611A2FB0675D7EB7A
:10312000C020A94102D2761E80185941C90241EA45
:103130005051B1FBF3FE03FB1E11A2FB0E75D7EB42
:10314000C020A94103D2AEF1010E80185941890275
:1031500041EA9051760546EA8E2EB1FBF3F603FB69
:103160001611A2FB0675D7EB8020A94102D2761E6C
:1031700080185941C90241EA50514EEA060EB1FB8E
:10318000F3F603FB1611A2FB0675D7EBC020A9418D
:1031900002D2761E80185941C90241EA5051B1FB52
:1031A000F3F703FB1711A2FB0735D3EBC020A941AE
:1031B00067F100070CBF004247F0010766F3D5270F
:1031C0004FEA1E31B80814F5806412DDBD0775F1B1
:1031D000004250EB0E5051EB045111F5801F5CBFC3
:1031E00041EA0C01F0BD4CF07F6141F0E04100206C
:1031F000F0BDBD076D0840EA0E5041F48011D4F1D6
:103200000104B4F120060ADAC4F120060200E0400D
:1032100001FA06F3E1401843B24015430EE0342CA6
:1032200013DCC6F1200445EA40056D0820FA06F2D9
:10323000154321FA06F0A1400D43002175F100422B
:1032400050F1000051EB0C01F0BD00205FEA0C01D1
:10325000F0BDCFB992185B41B3FA83F704BFB2FA5D
:1032600082F6BF190B3FB7F120062FBF02FA06F313
:10327000BB40C7F1200622FA06F638BF3343BA40F6
:103280001CB1E419641E33E77F4231F00041B1FA0A
:1032900081F404BFB0FA80F6A4190B3CB4F1200607
:1032A0002FBF00FA06F1A140C4F1200620FA06F66D
:1032B00038BF3143A0403C1B1AE7AC421ABF05EAB5
:1032C0001357AF4212E050EA41061CBF52EA4306D0
:1032D000BFE750EA4107304661461CBF41EA05514D
:1032E000F0BD52EA430C08BFC143F0BD00204FF4CB
:1032F000001616EB410F98BF16EB430F08BF16EBF5
:10330000410F24BFC14305E016EB430F0CBF6146DC
:103310004CEA0551F0BD0000400D491840EA8120FB
:103320000CD2490DA1F58061491C40F0004005DB3D
:10333000D1F11F0154BFC840C0177047002070472B
:10334000014648B1B0FA80F18840C91CC1F58461DA
:10335000090501EBD02140057047000070B44FF023
:10336000004591EA030F40F17D806B40841A71EBB8
:10337000030603D2001BB141121973414FF4001C24
:103380001CEB410F34BF7CEB430442E00C0DA4EB7B
:103390001356352E4FDC45EAC323DB0A45EAC1212B
:1033A000C912B6F120050DDD63FA05F6EB4086EA99
:1033B0000305124218BF45F00105C01851F1000184
:1033C0000CD213E062FA06F5F2405540F3415A4040
:1033D000B340F3405A408018594107D349085FEA87
:1033E00030005FEA350528BF45F0010501F5801181
:1033F000420875F1004250F1000041EB04514E00CB
:1034000016F5001F70BC38BF70470020090D090574
:1034100070471CEB410F10D252EA43060BD0BCEBB5
:10342000410F05D80C0DAB43661E342EB6DD02E00D
:10343000AB438018594170BC704770BC70470000A6
:1034400000487047DC90FF1F012000F0C1B8000069
:103450007047000070B44FF0004591EA030F7FF50C
:1034600085AF6B40841A71EB030604D26E40001BDB
:10347000B141121973414FF4001C1CEB410F34BFD2
:103480007CEB430683E00C0DA4EB1356362E00F3C1
:103490007C80012E45EAC32341DC43EA525312BF2C
:1034A000D20292025B08240545EAC12141EA50514B
:1034B000D2EBC020994125D407D1B0FA80F610FA9A
:1034C00006F162D00020203608E0B1FA81F6B14062
:1034D000C6F1200220FA02F21143B0404FEAF47420
:1034E000B4EB465434F001064FEA74040AD8D6F51A
:1034F0000016760D04F00044F04061FA06F25040E8
:10350000F1404840C00A40EA415021F0004128BF44
:103510005FEA500550F1000044EBD12135E0DB0AB1
:1035200045EAC121C90AB6F120050EDD42EA024290
:10353000120CC5F1200603FA06F6EB4042EA060536
:103540006D42984161F100010DE062FA06F5F2402A
:10355000554063FA06FC82EA0C02F3405A406D4281
:10356000904161EB030111F4801F05D1641E6205D7
:1035700002D06D004041494121F48011430875F1AA
:10358000004350F1000041EB045170BC70471CEB4C
:10359000410F15D223F0004352EA43060BD04FEA05
:1035A0004C0CBCEB410F04D80C0D661E342EB7DD5D
:1035B000EBE7801A994150EA410608BF0021E4E791
:1035C00008BF1CEB430F28BF6FF00001DDE70000D0
:1035D0002021090326311820ABBEF9E70000F04294
:1035E000143246000000AD420000AB4200004842E9
:1035F000666688420000484200005442000048428B
:1036000000003C42000048420000284200002842DE
:103610000000284200000000000000000000000040
:10362000000000000000000000000000000000009A
:1036300000004E6F6E4D61736B61626C650000003F
:1036400000486172644661756C74000000000000FF
:103650004D656D4D616E6167656D656E740000420C
:1036600075734661756C74000000000000005573AE
:103670006167654661756C74000000000000000021
:10368000000000000000000000000000000000003A
:10369000000000000000000000000000000000002A
:1036A000000000000000000000000000000000001A
:1036B000000000000000000000535643616C6C00E5
:1036C000000000000000000044656275674D6F6EE9
:1036D00069746F720000000000000000000000002C
:1036E00000000000000050656E64535600000000AA
:1036F00000000000005379735469636B0000000000
:1037000000000000444D41300000000000000000B7
:10371000000000444D4131000000000000000000A6
:103720000000444D41320000000000000000000095
:1037300000444D4133000000000000000000000084
:10374000444D41340000000000000000000000442F
:103750004D41350000000000000000000000444D15
:1037600041360000000000000000000000444D4110
:10377000370000000000000000000000444D413808
:103780000000000000000000000000444D4139002E
:1037900000000000000000000000444D41313000F6
:1037A000000000000000000000444D4131310000E5
:1037B0000000000000000000444D413132000000D4
:1037C00000000000000000444D41313300000000C3
:1037D000000000000000444D4131340000000000B2
:1037E0000000000000444D413135000000000000A1
:1037F00000000000444D415F4572726F720000008E
:103800000000004D434D00000000000000000000DB
:1038100000004654464C000000000000000000007C
:1038200000526561645F436F6C6C6973696F6E0011
:103830004C56445F4C565700000000000000004CFE
:103840004C5700000000000000000000000057611D
:10385000746368646F6700000000000000524E4708
:10386000000000000000000000000000493243306A
:103870000000000000000000000000493243310059
:10388000000000000000000000005350493000001C
:10389000000000000000000000535049310000000B
:1038A00000000000000000005350493200000000FA
:1038B0000000000000000043414E305F4F525F4D5A
:1038C000425F6275660043414E305F4275735F4FE1
:1038D000666600000043414E305F4572726F7200B1
:1038E0000000000043414E305F54785F5761726EB4
:1038F000696E6743414E305F52785F5761726E69FF
:103900006E6743414E305F57616B655F55700000D5
:103910000052657365727665643531000000000001
:1039200052657365727665643532000000000043AD
:10393000414E315F4F525F4D425F627566004341B9
:103940004E315F4275735F4F666600000043414E23
:10395000315F4572726F72000000000043414E31CA
:103960005F54785F5761726E696E6743414E315F95
:1039700052785F5761726E696E6743414E315F578F
:10398000616B655F55700000005265736572766506
:103990006435390000000000526573657276656415
:1039A0003630000000000055415254305F52585FDD
:1039B00054580000000055415254305F45525200A7
:1039C000000000000055415254315F52585F545876
:1039D0000000000055415254315F45525200000032
:1039E00000000055415254325F52585F5458000055
:1039F000000055415254325F455252000000000011
:103A00000055415254335F52585F54580000000033
:103A100055415254335F455252000000000000559A
:103A2000415254345F52585F5458000000005541D1
:103A30005254345F4552520000000000005541527C
:103A400054355F52585F545800000000554152549D
:103A5000355F4552520000000000004144433000F1
:103A6000000000000000000000004144433100005D
:103A7000000000000000000000434D503000000036
:103A80000000000000000000434D50310000000025
:103A900000000000000000434D5032000000000014
:103AA00000000000000046544D30000000000000FF
:103AB000000000000046544D3100000000000000EE
:103AC0000000000046544D320000000000000000DD
:103AD000000000434D540000000000000000000002
:103AE00000005254430000000000000000000000ED
:103AF000005265736572766564383300000000001B
:103B00005049543000000000000000000000005048
:103B1000495431000000000000000000000050493E
:103B20005432000000000000000000000050495422
:103B3000330000000000000000000000504442304C
:103B4000000000000000000000000055534230005B
:103B500000000000000000000000555342444344B0
:103B6000000000000000000000454E45545F313564
:103B700038385F54696D6572454E45545F547261C3
:103B80006E736D69740000454E45545F5265636500
:103B9000697665000000454E45545F4572726F724C
:103BA0000000000000493253300000000000000017
:103BB00000000000534448430000000000000000E3
:103BC00000000044414330000000000000000000FD
:103BD00000004441433100000000000000000000EC
:103BE00000545349300000000000000000000000B5
:103BF0004D43470000000000000000000000004CA2
:103C00005054696D657200000000000000005265AC
:103C100073657276656431303200000000504F5297
:103C2000544100000000000000000000504F5254BA
:103C30004200000000000000000000504F525443BA
:103C400000000000000000000000504F52544400EB
:103C5000000000000000000000504F5254450000DA
:103C60000000000000000000526573657276656414
:103C7000313038000000005265736572766564313A
:103C80003039000000005265736572766564313129
:103C90003000000000526573657276656431313121
:103CA0000000000052657365727665643131320040
:103CB000000000526573657276656431313300002F
:103CC000000052657365727665643131340000001E
:103CD000005265736572766564313135000000000D
:103CE00052657365727665643131360000000052AA
:103CF0006573657276656431313700000000526586
:103D00007365727665643131380000000052657366
:103D1000657276656431313900000000008003402F
:103D20000090034000800B4000F00F4040F00F4037
:103D300080F00F40C0F00F4000F10F40B4000E1EA5
:103D40003000180032001801600018186400181ABA
:103D50006E00181F780013187D00131A8200131CC0
:103D60008C000E1296000E15A0000E18AA000E1B55
:103D7000B4000E1EC8000C1CE1000B1EFA000A1F46
:103D8000000109080090044000A0044000B0044075
:103D900000C0044000D0044000C0024000D00240F7
:103DA00000C00A4000A0064000B0064000C0064027
:103DB00000D0064000A00E4000B00E400100000000
:103DC0000200F401030050000400BC00050078006C
:103DD000060000000700000008003C000000000092
:103DE00001000000020000000300000004000000C9
:103DF00005000000060000000700000008000000A9
:103E00006A6E6B6C676D4E4F11100F0734431010C4
:103E10000100000034431010010000009888FF1FCB
:103E20009888FF1F9888FF1F9888FF1F9888FF1F9A
:103E30009888FF1F9888FF1FFFFFFFFFFFFFFFFF0E
:103E40009A88FF1F9888FF1F9888FF1FFFFFFFFFBA
:103E5000FFFF00000204010180570020D05700201E
:103E6000805700208057002000000000805700206D
:103E7000000000005891FF1F4491FF1F0000000048
:103E80000000000000000000000000000000000032
:103E90000000000000000000000000007800780032
:103EA000800080000501144AFEFAFFFDFBFC46017C
:103EB00001000000F8B55020ADF800000A20ADF870
:103EC00002004FF478431F226BA1009800F0E5FC3C
:103ED0006E20ADF800000A20ADF802004FF47843E0
:103EE0001F22DFF8C8060178009800F00AFD6E2056
:103EF000ADF800001E20ADF802004FF478431F22F9
:103F0000DFF8AC060178009800F0FBFC5020ADF81B
:103F100000001E20ADF802004FF478431F2257A185
:103F2000009800F0BAFC6E20ADF800003220ADF829
:103F300002004FF478431F22DFF8780601780098DA
:103F400000F0DFFC5020ADF800003220ADF8020098
:103F50004FF478431F224AA1009800F09EFC2820CD
:103F6000ADF800000A20ADF802004FF478431F229C
:103F7000DFF844060178009800F0C3FC0A20ADF891
:103F800000000A20ADF802004FF478431F223DA143
:103F9000009800F082FC2820ADF800001E20ADF84B
:103FA0000200DFF81846DFF818564FF478431F2256
:103FB00016001F002969200000F094FD00F0FEFDAE
:103FC00001003B003200009800F09BFC0A20ADF895
:103FD00000001E20ADF802004FF478431F222AA1F2
:103FE000009800F05AFC2820ADF800003220ADF80F
:103FF00002004FF478431F2216001F00A969200019
:1040000000F070FD00F0DAFD01003B003200009886
:1040100000F077FC0A20ADF800003220ADF8020075
:104020004FF478431F2219A1009800F036FC282095
:10403000ADF800004620ADF802004FF478431F228F
:1040400016001F00296A200000F04CFD00F0B6FDAC
:1040500001003B003200009800F053FC0A20ADF84C
:1040600000004620ADF802004FF478431F2208A15B
:10407000009800F012FCF1BD5448000052430000CB
:1040800053570000434D000052453400524536005E
:1040900052453800F8B5DFF82C45206800280FD1CC
:1040A0006420FDF728FC20680028FCD0DFF8180504
:1040B0000178491C01700178082901D101210170A2
:1040C000DFF80845206800280FD16420FDF713FCB5
:1040D00020680028FCD0DFF8F0140878401E087033
:1040E0000878002801D107200870DFF8E444206830
:1040F000002840F0E7806420FDF7FDFB20680028E1
:10410000FCD0DFF8C404007801280DD0C0F0DA80BC
:10411000032837D021D305285ED048D3072800F0E4
:10412000AB80C0F08180CDE0FFF7C4FEDFF87C04F7
:104130000178491C01700178DFF898241170DFF8CC
:1041400098446E2121800A2161804FF478431F2218
:104150000178206800F0D5FBB4E0FFF7ABFEDFF894
:1041600050140878401C0870DFF86C046E2202803E
:104170001E2242804FF478431F220978006800F025
:10418000C0FB9FE0FFF796FEDFF828140878401C7C
:104190000870DFF844046E220280322242804FF41D
:1041A00078431F220978006800F0ABFB8AE0FFF734
:1041B00081FEDFF804140878401C0870DFF818044A
:1041C000282202800A2242804FF478431F22097875
:1041D000006800F096FB75E0FFF76CFEDFF8E04347
:1041E000206900F0FDFC0022DFF8F033FFF732F920
:1041F00000F01AFD2061DFF8E053282028801E20FF
:1042000068804FF478431F2216001F002169DFF8F1
:10421000AC0300F067FC00F0D1FC01003B00320071
:10422000286800F06EFB4DE0FFF744FEDFF8904396
:10423000A06900F0D5FC0022DFF8A033FFF70AF9EF
:1042400000F0F2FCA061DFF8905328202880322093
:1042500068804FF478431F2216001F00A169DFF821
:104260005C0300F03FFC00F0A9FC01003B003200C1
:10427000286800F046FB25E0FFF71CFEDFF840430E
:10428000206A00F0ADFC0022DFF85033FFF7E2F8BF
:1042900000F0CAFC2062DFF8405328202880462026
:1042A00068804FF478431F2216001F00216AC3481C
:1042B00000F018FC00F082FC01003B00320028688E
:1042C00000F01FFBC64C2068002840F0D18064201D
:1042D000FDF711FB20680028FCD0BB4800780128BE
:1042E0000CD0C0F0C580032831D01DD3052854D090
:1042F00040D3072800F0998073D3B9E0FFF7DAFDC7
:10430000AA480178491E01700178B24A1170B24C76
:104310006E2121800A2161804FF478431F220178A9
:10432000206800F0EEFAA3E0FFF7C4FDA04908788A
:10433000401E0870A8486E2202801E2242804FF460
:1043400078431F220978006800F0DBFA90E0FFF75D
:10435000B1FD98490878401E08709F486E2202807F
:10436000322242804FF478431F220978006800F01F
:10437000C8FA7DE0FFF79EFD8F490878401E08705F
:104380009548282202800A2242804FF478431F2257
:104390000978006800F0B5FA6AE0FFF78BFD884CF9
:1043A000206900F01DFC00228E4BFFF753F800F04F
:1043B0003BFC2061884D282028801E2068804FF417
:1043C00078431F2216001F0021697C4800F08AFBF9
:1043D00000F0F4FB01003B003200286800F091FA85
:1043E00046E0FFF767FD764CA06900F0F9FB00227C
:1043F0007C4BFFF72FF800F017FCA061764D2820CA
:104400002880322068804FF478431F2216001F0056
:10441000A1696A4800F066FB00F0D0FB01003B0098
:104420003200286800F06DFA22E0FFF743FD644C8B
:10443000206A00F0D5FB00226A4BFFF70BF800F072
:10444000F3FB2062644D28202880462068804FF4CA
:1044500078431F2216001F00216A584800F042FBD3
:1044600000F0ACFB01003B003200286800F049FA84
:104470005548007801280BD0C0F09780032827D03A
:1044800016D3052844D033D3072875D05AD38CE0EF
:10449000FFF710FD50486E2101800A2141804FF640
:1044A000FF731F2241490978006800F02AFA7CE076
:1044B000FFF700FD48486E2101801E2141804FF624
:1044C000FF731F223A490978006800F01AFA6CE07D
:1044D000FFF7F0FC40486E210180322141804FF609
:1044E000FF731F2233490978006800F00AFA5CE084
:1044F000FFF7E0FC3848282101800A2141804FF66F
:10450000FF731F222C490978006800F0FAF94CE08B
:10451000FFF7D0FC304C282020801E2060804FF612
:10452000FF731F2215001E0025480169234800F073
:10453000D9FA00F043FB010033002A00206800F0A4
:10454000E0F932E0FFF7B6FC234C2820208032202F
:1045500060804FF6FF731F2215001E001848816906
:10456000164800F0BFFA00F029FB010033002A00D2
:10457000206800F0C6F918E0FFF79CFC164C2820D4
:104580002080462060804FF6FF731F2215001E001A
:104590000B48016A094800F0A5FA00F00FFB010082
:1045A00033002A00206800F0ACF9F1BD6691FF1FCE
:1045B0006491FF1F0B5800206E91FF1F00002041E7
:1045C000A488FF1F0C22FE436F91FF1F2822FE4389
:1045D0001022FE43A088FF1F2CF1FF1F0000E03FC8
:1045E0000822FE430000E0BF1CB5DFF8D8040468D1
:1045F000FBF712FFFDF71FF8ADF80000FDF718F804
:10460000ADF802004FF478420099200000F001F864
:1046100013BDF2B50400150000992000FCF73BFF24
:10462000BDF80010BDF802004143DFF89C040122F0
:104630000260DFF8982400231360DFF8943400262A
:104640001E60DFF890642C273770DFF88C745FF001
:10465000000CC7F800C05FF0010CC7F800C05FF0A5
:10466000010CC3F800C05FF0000C8C453AD25FF03B
:10467000010EC0F800E05FF0010EC2F800E05FF04C
:10468000000EC3F800E0AE461FFA8EFE5FEA1E2E53
:1046900086F800E05FF0000EC7F800E05FF0010E62
:1046A000C7F800E05FF0010EC3F800E05FF0010E14
:1046B000C0F800E05FF0010EC2F800E05FF0000E0D
:1046C000C3F800E035705FF0000EC7F800E05FF05F
:1046D000010EC7F800E05FF0010EC3F800E01CF126
:1046E000010CC2E7F1BD2DE9F14F0C0015001E00D1
:1046F000DFF8E803D0F80090FCF79DFF0838BDF81C
:104700000010884206DBFCF793FF1038BDF802105A
:10471000884200DABFE049460098FCF7BCFEDFF8AB
:10472000A80301210160DFF8A41300220A60DFF86A
:10473000A02300231360DFF89C335FF02C0C83F878
:1047400000C0DFF894C35FF0000ECCF800E05FF02B
:10475000010ECCF800E05FF0010EC2F800E05FF05F
:10476000000EF2465FFA8AFABAF1100F80F29380D7
:10477000DFF86CA3A3465FFA8BFB5FEA0B1B5BFAC7
:104780008EFBDA44BAF5007A9AF800A057465FF03B
:10479000000AD046C2465FFA8AFABAF1080F77DA01
:1047A0005FEA076A38D55FF0010AC0F800A05FF041
:1047B000010AC1F800A05FF0000AC2F800A0AA46F2
:1047C0001FFA8AFA5FEA1A2A83F800A05FF0000A4B
:1047D000CCF800A05FF0010ACCF800A05FF0010A5D
:1047E000C2F800A05FF0010AC0F800A05FF0010A63
:1047F000C1F800A05FF0000AC2F800A01D705FF0D1
:10480000000ACCF800A05FF0010ACCF800A05FF02D
:10481000010AC2F800A037E05FF0010AC0F800A06A
:104820005FF0010AC1F800A05FF0000AC2F800A022
:10483000B2461FFA8AFA5FEA1A2A83F800A05FF0EC
:10484000000ACCF800A05FF0010ACCF800A05FF0ED
:10485000010AC2F800A05FF0010AC0F800A05FF0F2
:10486000010AC1F800A05FF0000AC2F800A01E70A3
:104870005FF0000ACCF800A05FF0010ACCF800A0BD
:104880005FF0010AC2F800A07F0018F1010881E77B
:104890001EF1010E65E7BDE8F18F71B581B00C0026
:1048A00015001E00207800282AD0FCF7C4FE083826
:1048B000BDF80410884207DA0020ADF80400BDF806
:1048C00006001030ADF80600FCF7B2FE1038BDF857
:1048D0000610884205DA0020ADF806000020ADF889
:1048E000040033009BB22A0092B221780198FFF7AE
:1048F000FAFEBDF804000830ADF80400641CD1E7EE
:1049000073BD2DE9F14181B00C0016001F00250098
:104910005FF00008BDF80600ADF80200002C08D1D9
:104920003B009BB2320092B230210198FFF7DBFED0
:1049300027E0002D05D00A20B5FBF0F518F101089D
:10494000F7E7002C1DD0BDF804004146C9B289B27A
:1049500010EBC1000838ADF80000B8F101080A21D9
:104960003B009BB2320092B2B4FBF1F001FB10416C
:104970003031C9B20098FFF7B6FE0A20B4FBF0F45C
:10498000DFE7BDE8F3812DE9FB4F82B01500A946B2
:1049900003990298FCF77FFDDFF82C1101200860D5
:1049A000DFF8282100201060DFF824310020186093
:1049B000DFF820E12C208EF80000DFF81CA1002099
:1049C000CAF800000120CAF80000012018605FF05A
:1049D000000B5846BDF80EC080B260456ED2DC4672
:1049E0001FFA8CFCBDF8120000FB0CFCBDF80E0099
:1049F0009CFBF0F0ADF80000BDF80000BDF810C061
:104A00000CFB00F00190002007003800BDF80CC03E
:104A100080B260454FD2BC461FFA8CFCBDF8100036
:104A200000FB0CFCBDF80C009CFBF0F080460198EC
:104A300010FA88F0060019F806C05FFA8CFC5FEAED
:104A4000DC0C5FFA8CFC19F80600C0B28008C0B21A
:104A5000400150EACC2019F806C05FFA8CFC5FEAEE
:104A6000DC0C5FFA8CFC5CEA0000040001200860AA
:104A70000120106000201860200080B2000A8EF82B
:104A800000000020CAF800000120CAF80000012040
:104A900018600120086001201060002018608EF866
:104AA00000400020CAF800000120CAF800000120E0
:104AB00018607F1CA9E71BF1010B8AE705B0BDE870
:104AC000F08F00009088FF1F2810FE433010FE4337
:104AD0002C10FE4380F00F402410FE439488FF1FEB
:104AE000B86FFF1FFF2212EAD05C1DBF12EAD1533C
:104AF000944593422BE09C44D30780EA01021A407C
:104B000043EA002043EA0121A1FB0030C04238BF44
:104B100040007CF17F010BDBFE294ADA5B0842EAA8
:104B2000C15153EA006373F1004C51EB1020704700
:104B3000D1F1080CDCF120012FDB5B0810FA01F148
:104B40000B4320FA0CF073F100415041704794453B
:104B50001CBF02EAD153934280EA010202F00042F4
:104B60001DD0400019D0490017D05BB9634514D05F
:104B70000902B1FA81F39940BCEB030CC00140F08B
:104B80000040C1E70002B0FA80FC10FA0CF0B3EB71
:104B90000C0CC90141F00041B6E71000704740001D
:104BA0000AD0490008D010F1807F94BF11F1807FB6
:104BB00002E042F0FF407047D043704700180CD22B
:104BC000010E7F3909D4D1F11F015DBFC00140F052
:104BD0000040C8406FF000007047002070470000A0
:104BE000C0F3C75181B1FF2906D0C110400721F0A1
:104BF000E04101F16051704741020CBF40F4E00117
:104C00006FF000410020704700F0004100020AD020
:104C1000B0FA80FC00FA0CF001F16051A1EB0C51EC
:104C200001EBD0214005704701F000428B1AA3F13F
:104C30006051B1F5801F0ADBB1F17F6F1FD242EAEC
:104C4000C102C10071F1004142EB507070470B1579
:104C5000C3F10903212B10D2890241EA905180024D
:104C60000128494141F0004121FA03F0C3F120033A
:104C7000994071F1004150417047100070476FF04A
:104C8000000013EB103F5CBF000E42EAC0507047BB
:104C90002DE9F84F0020DFF87C160880DFF8784611
:104CA000DFF878562A007821BC2000F087FB2070BE
:104CB000DFF86C0621780278914201D200782070EA
:104CC000DFF86016002008800888782831DADFF8DD
:104CD0005806002202800288BC2A26DABC220B88F1
:104CE00053432B4406889B5D2678B34206D30B883A
:104CF000DFF838663678B6B2B34209D2DFF830361C
:104D00000E8802FB06F21A4403880026D65408E0F7
:104D1000DFF81C360E8802FB06F21A440388FF26D1
:104D2000D6540288521C0280D5E70888401C0880AF
:104D3000CAE7DFF8002600201080DFF8FC350020ED
:104D40001880DFF8F87500203860DFF8F44500209F
:104D500020800020DFF8EC552880DFF8EC55DFF8E4
:104D6000EC052860DFF8E86500203060002008804E
:104D70000888782826DA0020DFF8D8C5B1F800E0E6
:104D80002CF81E00BC20DFF8D0C5B1F800E02CF8EC
:104D90001E000020DFF8C4C5B1F800E02CF81E00AA
:104DA0000020DFF8BCC5B1F800E02CF81E00BC20E4
:104DB000DFF8B0C5B1F800E02CF81E000888401CF0
:104DC0000880D5E70020DFF8A0C5ACF80000BC20C3
:104DD000DFF898C5ACF80000BC20DFF894C5ACF84B
:104DE0000000002008800888782817DADFF840C51E
:104DF000BC205FF0000EB1F8008000FB08F80CF852
:104E000008E0B1F800E000FB0EF060445FF0000C39
:104E100080F8BBC00888401C0880E4E7DFF808C5BC
:104E20000020ACF80000BCF80000BC2816DADFF85F
:104E300000055FF0000EBCF8008000F808E05FF0AD
:104E4000000EBCF80080404445F2647800F808E0A9
:104E5000BCF80000401CACF80000E4E7002008802B
:104E60000888782880F2CA800020ACF80000BCF8DE
:104E70000000BB2880F29480DFF8B4E45FF0BC0847
:104E8000088808FB00F07044BCF800904844407863
:104E9000FF2813D1088808FB00F07044BCF800908C
:104EA00010F80900002809D1BCF80000401CDFF808
:104EB000B4E4B1F800802EF818001CE0088808FB64
:104EC00000F07044BCF8009048444078002812D1AB
:104ED000088808FB00F80EEB0800BCF800E010F8AA
:104EE0000E00FF2807D1BCF80000DFF874E4B1F829
:104EF00000802EF81800DFF85CE408883EF8100007
:104F000000281DD1DFF85004B1F8008030F8188077
:104F1000B8F1BC0F14D1DFF84884B1F8009038F82C
:104F20001980B1F800902EF81980DFF838E4B1F854
:104F300000803EF818E0B1F8008020F818E029E081
:104F4000DFF82084DFF81894DFF80CA408883EF816
:104F50001000B1F800B03AF81BB0B0EB0B000090B5
:104F6000088839F81000B1F800B038F81BB0B0EB81
:104F70000B0B009858450DDA088839F81000B1F885
:104F800000902EF81900088838F81000B1F800E0F9
:104F90002AF81E00BCF80000401CACF8000066E7D0
:104FA000DFF8B4E308883EF81000BC2807D1DFF82A
:104FB000A403B1F8008030F81800002813D0DFF8FF
:104FC0009403B1F8008030F8188008883EF810008B
:104FD000B8EB000818F10108DFF88003B1F800E031
:104FE00020F81E8006E00020DFF870E3B1F80080B2
:104FF0002EF818000888401C088031E7002008803F
:10500000088878282BDADFF85403D6F800C0B1F806
:1050100000E030F81EE0F4451DDADFF838C3B1F8DF
:1050200000E03CF81EC0DFF840E3AEF800C0DFF857
:1050300028C3B1F800E03CF81EC0DFF830E3AEF85A
:1050400000C0B1F800C030F81C0030600888DFF8FC
:1050500020C3ACF800000888401C0880D0E700207E
:105060000880088877282FDADFF8080390F800C056
:10507000BCF1010C80F800C0DFF8E0C208880CEB3E
:105080004000408800280BD008883CF81000002819
:1050900006D10888401CDFF8E0C2ACF800000FE041
:1050A00008880CEB40004088002809D108883CF8AB
:1050B0001000002804D00888DFF8C0C2ACF8000057
:1050C0000888401C0880CCE7DFF8AC82B8F8000004
:1050D000782800F0B680DFF8A4C2BCF800000028F1
:1050E00000F0AF80D6F800E07FF0010000FB0EFE7C
:1050F000D6F80090DFF888020068B9EB0009CE45C9
:1051000080F29F80DFF87C0290F800E01EF1010E33
:1051100080F800E0DFF870E25FF000098EF80090A0
:105120005FF00109DFF864A28AF8009090F800901F
:10513000B9F1030F03DB5FF0030980F800909EF8DC
:105140000000DFF84CE28EF80000B8F8000008809C
:10515000BCF80000B1F800E0704536D3DFF8F8E1A4
:10516000DFF8F091B2F800A0088839F8100010EBD1
:105170000A0A08883EF81000BAEB000A1AF1010A80
:10518000A2F800A0B3F800A0088839F810B0088889
:105190003EF8100010EB0B0B1BEB0A0AA3F800A063
:1051A000D7F800A0088839F8109008883EF8100059
:1051B000B9EB000919F10109088800FB09AAC7F831
:1051C00000A00888401C0880C2E7108820805D4944
:1051D0001A88BCF80030B8F800001B1A5B1C580095
:1051E00092FBF0F0088008886A49088020886A49A4
:1051F0000880386800F082F90700208800F07EF906
:105200000100380000F088F9286028684F4900F054
:1052100001FA40D2614A5068002100F00DFA03D033
:105220005F480078012807D128685060286810601E
:1052300000205B4908702EE01068506028681060FC
:1052400029E00020514908704F480178491C01703D
:1052500000214C4A11700078032806DB01205049D8
:10526000087000204649086015E04B4800882080FF
:105270004A4C2068616800F0EDF94A4900F0CAF92B
:1052800009D22068616800F0E5F9474900F022FA88
:1052900001D8206828603B480078032807DA28688E
:1052A0002A4900F017FA02D83C48006828603449BF
:1052B00032687FF001004243336808681B1A9A4243
:1052C00001DA306808601F490888002806D12E4896
:1052D0000078032802DA2F480088088033480468E1
:1052E00033480568334806682B00114A3100200016
:1052F000FFF749FB1C4801881C480088091A2E4802
:1053000001601E4801880180B8F80000A8F800007C
:10531000BDE8F18FE6570020F757002030F5FF1F5A
:105320006691FF1FE0570020E25700206491FF1FA5
:10533000FC93FF1FD4570020D6570020E093FF1F97
:10534000D8570020DA5700209C88FF1F0000F04249
:10535000E493FF1F1CECFF1F0CEDFF1FFCEDFF1F74
:10536000ECEEFF1FDCEFFF1FD25700205C91FF1F08
:10537000D05700206591FF1F5E91FF1FE45700206A
:10538000F893FF1FF6570020F2570020F357002034
:10539000F5570020DC570020DE570020E893FF1F60
:1053A000F45700200100803F000080BF8088FF1F6D
:1053B0008488FF1F8888FF1FDC93FF1F2DE9F64FAD
:1053C00087B004000020069000275FF000085FF01F
:1053D000000A002004905FF0000B002003900020E2
:1053E0000290002001900020059000200021B1F5DE
:1053F000807F05DA0022404B43F82120491CF6E764
:10540000002607998E4216DA00210D00A54210DA17
:105410003949089A04FB0653D25C089B04FB065CDE
:1054200013F80C3051F823305B1C41F822306D1C0E
:10543000ECE7761CE5E70021B1F5807F0ADA2E4A19
:1054400052F8210000FB017752F8210010EB080808
:10545000491CF1E75FF00009B9F1FF0F46DA264970
:1054600051F8290010EB0A0AB8EB0A00049051F831
:10547000290000FB09BB584600F03EF90090504659
:1054800000F03AF90100009800F046F80390B7EBFD
:105490000B0000F031F90090049800F02DF90100A4
:1054A000009800F039F80290049800FB0AF000F030
:1054B00023F900900398029900F0CCF80099FFF7C7
:1054C00011FB00900398029900F0C4F80099FFF7CF
:1054D00009FB01900598019900F09CF803D201980E
:1054E0000590CDF8189019F10109B5E7069809B0B3
:1054F000BDE8F08F0000000030F1FF1F00280AD047
:10550000B0FA80F18840D1F19D01C905020672F11F
:10551000004241EB1020704710B5FF2313EAD0542E
:105520001DBF13EAD1529C429A4239E0A41ADA070D
:1055300080EA0103134042EA012142EA0020421AB4
:105540003CBF641E01EB4202090AB2FBF1FE01FB03
:105550001E221202B2FBF1F001FB10226EF30F20AB
:105560001202B2FBF1FE4EEA00207F3406DDFE2C73
:1055700024DA53EA500050EBC45010BDD4F10204B9
:1055800001FB1E2240F08071192C1DDC21FA04F071
:10559000C4F12004A140114371F10042584110BDF3
:1055A0009C421ABF03EAD1529A420FE080EA010EF0
:1055B0000EF00043400004D0490016D143F0FF40F4
:1055C00010BD490008BFD343180010BD9C4205D14F
:1055D000D21AF7D001F00041484010BD4A0212BF74
:1055E0000846484000F0004010BD4AB90902B1FA2F
:1055F00081F2914044B1A418C00140F000409EE700
:10560000C90141F0004152420002B0FA80F4A040CA
:10561000141B94E74FF0807C1CEB400F94BF1CEBF5
:10562000410F05E040EA010C1CEB0C0F01D288424F
:10563000704718BF8142704740EA010C1CEB0C0F09
:1056400007D0884205D14FEA400C1CF1807F98BFFB
:105650008042704790EA010F40F1668081F000417E
:10566000421A3CBF801A89184FF0004CC0F3C75251
:10567000FF2A24D0C1F3C75313B3D21AD2F11903AE
:1056800027DD4CEA01214CFA03F321EA0303D14060
:10569000C20D4CEA0020401834BF20EA0C004CEA4E
:1056A0005000D20553EA006373EB0C0C52EB102050
:1056B000420012F1807F38BF7047C00DC0057047AF
:1056C000490212BF9A4200EB5120F8E7D2F11703CA
:1056D000D9D570474FF0807C1CEB400F94BF1CEB7A
:1056E000410F05E040EA010C1CEB0C0F01D2814296
:1056F000704718BF88427047C2175040801AB0FAEE
:1057000080F10AD08840D1F19D01D20742EAC1510F
:10571000020672F1004241EB1020704790EA010F3F
:105720007FF59EAF81F00041431A4FF000423EBF2B
:105730005340C01AC91800BFD3095FEAD05C13EB0D
:10574000400F34BFB3EB410F40E07CEBD1530CD39F
:1057500042EA012122D8D1EB402009D3400A28BFD8
:105760005FEA500140EBCC507047401A15D0400220
:10577000B0FA80F2521C9040400A4FEA3C23B3EB4F
:10578000026384BF00EB730007E040F400001A16C8
:10579000DB07C2F10102D04018437047182BFCDC34
:1057A00031FA03F202FA03F3591A38BF42F0010248
:1057B000D2EB40203CBF4000ACF1010C5FEACC5C76
:1057C000C20572F100414CEB5020704713EB400FC3
:1057D0000FD2C94209D0ACEBD153022B03DB4902F3
:1057E000172BDDDD70479143401AC042D5D1002010
:1057F000704713EB410FD0D36FF0000070470000EB
:105800002DE9FE4F96B080468946DFF84C060168C8
:105810004FF47A7041431898B1FBF0F0019006A85C
:10582000DFF838164022FDF7D7FB03A8DFF8301663
:105830000A680260002002905FF0FF34404640B2E8
:10584000002845D1DFF81C06016851F48051016041
:105850004FF400710F20FBF7D9FF4FF400711020B7
:10586000FBF7D4FF4FF400711120FBF7CFFF5FEA85
:10587000C97004D54FF400710E20FBF7C7FF5FEA33
:10588000897004D54FF400714320FBF7BFFF5FEA36
:10589000497004D54FF400714220FBF7B7FF5FEA6F
:1058A000097004D54FF400714120FBF7AFFF5FEAA8
:1058B000C96004D54FF400714020FBF7A7FF5FEAF1
:1058C00089606ED54FF440713720FBF79FFF68E089
:1058D000404640B2012835D1DFF88805016851F40F
:1058E000005101604FF400712B20FBF78FFF4FF444
:1058F00000713020FBF78AFF4FF400713120FBF775
:1059000085FF5FEAC97004D54FF400712A20FBF7C8
:105910007DFF5FEA897004D54FF400718020FBF7AA
:1059200075FF5FEA497004D54FF400718520FBF7DD
:105930006DFF5FEA097034D54FF400718620FBF7E4
:1059400065FF2EE0404640B2022825D1DFF8180559
:10595000016851F4805101604FF400713520FBF76C
:1059600055FF4FF400713620FBF750FF4FF40071E4
:105970003720FBF74BFF5FEAC97004D54FF4007185
:105980003420FBF743FF5FEA89700AD54FF40071BA
:105990006F20FBF73BFF04E07B21DFF8D004FBF72F
:1059A000CDFF40F60140DFF8C814424652B251F82C
:1059B00022100860DFF8BC04DFF8B414424652B28B
:1059C00051F82210C8629DF95C00002840F0A580C3
:1059D000DFF8A404DFF89814424652B251F82210BE
:1059E0000860002082465046C0B2102826DA002007
:1059F00083465846C0B204281DDA06A85146C9B2EB
:105A000050F8211003A85A46D2B2805C41430E00E0
:105A10000198301A00F032FA0500A54208D22C0095
:105A20005046C0B202905846C0B20490002C05D037
:105A30001BF1010BDDE71AF1010AD4E74FF47A718B
:105A4000DFF8142413684B4306A8DDF808C050F8AB
:105A50002CC003A8DDF810E010F80E0000FB0CFCD1
:105A6000B3FBFCF00590106801FB00F10598B1FB59
:105A7000F0F0400801905FF0FF3004000F208DF837
:105A8000010003208DF80200002007003800C0B29A
:105A9000102825DA0121781C81400E000198B0FB06
:105AA000F6F0401E40088DF800009DF80000042824
:105AB00014DA9DF800004000401C46430198301A5B
:105AC00000F0DCF90500A54208D22C008DF8017029
:105AD0009DF800008DF80200002C01D07F1CD5E756
:105AE0000498000410F44030029911F00F010843AB
:105AF0009DF80110090311F4704108439DF802104C
:105B0000890511F44001084350F06050D8494246DD
:105B100052B251F82210C86007E05FF07850D449C3
:105B2000424652B251F82210C860D148414649B2AB
:105B300050F82110096849084900424652B250F80D
:105B400022000160059819B0BDE8F08FF0B4049D03
:105B50000024C74EC74F84464FFA8CFC56F82CC021
:105B6000CCF82C7007007FB256F827703F6857F4C6
:105B7000406784464FFA8CFC56F82CC0CCF8007075
:105B800007007FB256F82770FF6ABF03E1D40027F1
:105B90006C1EA74236D28C464FFA8CFC5FEA0C4C46
:105BA0001CF47C1CD45D54EA0C0C5CF0004C04002A
:105BB00064B256F82440C4F834C0040064B256F805
:105BC0002440E46AA403F8D5002B06D0040064B294
:105BD00056F82440A46BDC5504E0040064B256F887
:105BE0002440A46B040064B256F82440E46A54F4E0
:105BF000003484464FFA8CFC56F82CC0CCF82C406C
:105C00007F1CC5E78C464FFA8CFC5FEA0C4C1CF4F9
:105C10007C1CD45D54EA0C0C5CF0006C040064B293
:105C200056F82440C4F834C0040064B256F8244046
:105C3000E46AE400F8D5040064B256F82440E46A4B
:105C4000A403F8D5002B06D0040064B256F8244013
:105C5000A46BDC5504E0040064B256F82440A46B45
:105C6000040064B256F82440E46A54F400348446D4
:105C70004FFA8CFC56F82C60F462F0BC70472DE9AA
:105C8000F0430400079E0898099FDDF828C000250E
:105C9000DFF8DCE1DFF8DC81A1464FFA89F95EF834
:105CA0002990C9F82C80A0464FFA88F85EF8288021
:105CB000D8F8008058F44068A1464FFA89F95EF898
:105CC0002990C9F80080A0464FFA88F85EF828802D
:105CD000D8F82C805FEA8838DAD45FF00009B9453B
:105CE00039D288464FFA88F85FEA084818F47C18D9
:105CF00012F8095055EA080858F0004825006DB21E
